{
  "_format": "hh-sol-artifact-1",
  "contractName": "Fun",
  "sourceName": "contracts/Fun.sol",
  "abi": [
    {
      "inputs": [
        {
          "internalType": "address",
          "name": "_owner",
          "type": "address"
        }
      ],
      "stateMutability": "nonpayable",
      "type": "constructor"
    },
    {
      "anonymous": false,
      "inputs": [
        {
          "indexed": true,
          "internalType": "address",
          "name": "owner",
          "type": "address"
        },
        {
          "indexed": true,
          "internalType": "address",
          "name": "spender",
          "type": "address"
        },
        {
          "indexed": false,
          "internalType": "uint256",
          "name": "value",
          "type": "uint256"
        }
      ],
      "name": "Approval",
      "type": "event"
    },
    {
      "anonymous": false,
      "inputs": [
        {
          "indexed": true,
          "internalType": "string",
          "name": "_name",
          "type": "string"
        },
        {
          "indexed": true,
          "internalType": "uint256",
          "name": "_age",
          "type": "uint256"
        }
      ],
      "name": "PersonCreated",
      "type": "event"
    },
    {
      "anonymous": false,
      "inputs": [
        {
          "indexed": true,
          "internalType": "string",
          "name": "_name",
          "type": "string"
        },
        {
          "indexed": true,
          "internalType": "uint256",
          "name": "_id",
          "type": "uint256"
        }
      ],
      "name": "PersonRemoved",
      "type": "event"
    },
    {
      "anonymous": false,
      "inputs": [
        {
          "indexed": true,
          "internalType": "bytes32",
          "name": "role",
          "type": "bytes32"
        },
        {
          "indexed": true,
          "internalType": "bytes32",
          "name": "previousAdminRole",
          "type": "bytes32"
        },
        {
          "indexed": true,
          "internalType": "bytes32",
          "name": "newAdminRole",
          "type": "bytes32"
        }
      ],
      "name": "RoleAdminChanged",
      "type": "event"
    },
    {
      "anonymous": false,
      "inputs": [
        {
          "indexed": true,
          "internalType": "bytes32",
          "name": "role",
          "type": "bytes32"
        },
        {
          "indexed": true,
          "internalType": "address",
          "name": "account",
          "type": "address"
        },
        {
          "indexed": true,
          "internalType": "address",
          "name": "sender",
          "type": "address"
        }
      ],
      "name": "RoleGranted",
      "type": "event"
    },
    {
      "anonymous": false,
      "inputs": [
        {
          "indexed": true,
          "internalType": "bytes32",
          "name": "role",
          "type": "bytes32"
        },
        {
          "indexed": true,
          "internalType": "address",
          "name": "account",
          "type": "address"
        },
        {
          "indexed": true,
          "internalType": "address",
          "name": "sender",
          "type": "address"
        }
      ],
      "name": "RoleRevoked",
      "type": "event"
    },
    {
      "anonymous": false,
      "inputs": [
        {
          "indexed": true,
          "internalType": "address",
          "name": "from",
          "type": "address"
        },
        {
          "indexed": true,
          "internalType": "address",
          "name": "to",
          "type": "address"
        },
        {
          "indexed": false,
          "internalType": "uint256",
          "name": "value",
          "type": "uint256"
        }
      ],
      "name": "Transfer",
      "type": "event"
    },
    {
      "inputs": [],
      "name": "ADMIN_ROLE",
      "outputs": [
        {
          "internalType": "bytes32",
          "name": "",
          "type": "bytes32"
        }
      ],
      "stateMutability": "view",
      "type": "function"
    },
    {
      "inputs": [],
      "name": "CREATE_PERSON",
      "outputs": [
        {
          "internalType": "uint256",
          "name": "",
          "type": "uint256"
        }
      ],
      "stateMutability": "view",
      "type": "function"
    },
    {
      "inputs": [],
      "name": "DEFAULT_ADMIN_ROLE",
      "outputs": [
        {
          "internalType": "bytes32",
          "name": "",
          "type": "bytes32"
        }
      ],
      "stateMutability": "view",
      "type": "function"
    },
    {
      "inputs": [],
      "name": "INITIAL_SUPPLY",
      "outputs": [
        {
          "internalType": "uint256",
          "name": "",
          "type": "uint256"
        }
      ],
      "stateMutability": "view",
      "type": "function"
    },
    {
      "inputs": [],
      "name": "MAX_SUPPLY",
      "outputs": [
        {
          "internalType": "uint256",
          "name": "",
          "type": "uint256"
        }
      ],
      "stateMutability": "view",
      "type": "function"
    },
    {
      "inputs": [
        {
          "internalType": "address",
          "name": "owner",
          "type": "address"
        },
        {
          "internalType": "address",
          "name": "spender",
          "type": "address"
        }
      ],
      "name": "allowance",
      "outputs": [
        {
          "internalType": "uint256",
          "name": "",
          "type": "uint256"
        }
      ],
      "stateMutability": "view",
      "type": "function"
    },
    {
      "inputs": [
        {
          "internalType": "address",
          "name": "spender",
          "type": "address"
        },
        {
          "internalType": "uint256",
          "name": "amount",
          "type": "uint256"
        }
      ],
      "name": "approve",
      "outputs": [
        {
          "internalType": "bool",
          "name": "",
          "type": "bool"
        }
      ],
      "stateMutability": "nonpayable",
      "type": "function"
    },
    {
      "inputs": [
        {
          "internalType": "address",
          "name": "account",
          "type": "address"
        }
      ],
      "name": "balanceOf",
      "outputs": [
        {
          "internalType": "uint256",
          "name": "",
          "type": "uint256"
        }
      ],
      "stateMutability": "view",
      "type": "function"
    },
    {
      "inputs": [
        {
          "internalType": "string",
          "name": "_name",
          "type": "string"
        },
        {
          "internalType": "uint256",
          "name": "_age",
          "type": "uint256"
        }
      ],
      "name": "createPerson",
      "outputs": [
        {
          "internalType": "bool",
          "name": "",
          "type": "bool"
        }
      ],
      "stateMutability": "nonpayable",
      "type": "function"
    },
    {
      "inputs": [],
      "name": "decimals",
      "outputs": [
        {
          "internalType": "uint8",
          "name": "",
          "type": "uint8"
        }
      ],
      "stateMutability": "view",
      "type": "function"
    },
    {
      "inputs": [
        {
          "internalType": "address",
          "name": "spender",
          "type": "address"
        },
        {
          "internalType": "uint256",
          "name": "subtractedValue",
          "type": "uint256"
        }
      ],
      "name": "decreaseAllowance",
      "outputs": [
        {
          "internalType": "bool",
          "name": "",
          "type": "bool"
        }
      ],
      "stateMutability": "nonpayable",
      "type": "function"
    },
    {
      "inputs": [],
      "name": "getAllPersons",
      "outputs": [
        {
          "components": [
            {
              "internalType": "string",
              "name": "name",
              "type": "string"
            },
            {
              "internalType": "uint256",
              "name": "id",
              "type": "uint256"
            },
            {
              "internalType": "uint256",
              "name": "age",
              "type": "uint256"
            },
            {
              "internalType": "address",
              "name": "creator",
              "type": "address"
            },
            {
              "internalType": "bool",
              "name": "exists",
              "type": "bool"
            }
          ],
          "internalType": "struct Fun.Person[]",
          "name": "",
          "type": "tuple[]"
        }
      ],
      "stateMutability": "view",
      "type": "function"
    },
    {
      "inputs": [
        {
          "internalType": "bytes32",
          "name": "role",
          "type": "bytes32"
        }
      ],
      "name": "getRoleAdmin",
      "outputs": [
        {
          "internalType": "bytes32",
          "name": "",
          "type": "bytes32"
        }
      ],
      "stateMutability": "view",
      "type": "function"
    },
    {
      "inputs": [
        {
          "internalType": "bytes32",
          "name": "role",
          "type": "bytes32"
        },
        {
          "internalType": "address",
          "name": "account",
          "type": "address"
        }
      ],
      "name": "grantRole",
      "outputs": [],
      "stateMutability": "nonpayable",
      "type": "function"
    },
    {
      "inputs": [
        {
          "internalType": "bytes32",
          "name": "role",
          "type": "bytes32"
        },
        {
          "internalType": "address",
          "name": "account",
          "type": "address"
        }
      ],
      "name": "hasRole",
      "outputs": [
        {
          "internalType": "bool",
          "name": "",
          "type": "bool"
        }
      ],
      "stateMutability": "view",
      "type": "function"
    },
    {
      "inputs": [
        {
          "internalType": "address",
          "name": "spender",
          "type": "address"
        },
        {
          "internalType": "uint256",
          "name": "addedValue",
          "type": "uint256"
        }
      ],
      "name": "increaseAllowance",
      "outputs": [
        {
          "internalType": "bool",
          "name": "",
          "type": "bool"
        }
      ],
      "stateMutability": "nonpayable",
      "type": "function"
    },
    {
      "inputs": [
        {
          "internalType": "uint256",
          "name": "",
          "type": "uint256"
        }
      ],
      "name": "listOfPeople",
      "outputs": [
        {
          "internalType": "string",
          "name": "name",
          "type": "string"
        },
        {
          "internalType": "uint256",
          "name": "id",
          "type": "uint256"
        },
        {
          "internalType": "uint256",
          "name": "age",
          "type": "uint256"
        },
        {
          "internalType": "address",
          "name": "creator",
          "type": "address"
        },
        {
          "internalType": "bool",
          "name": "exists",
          "type": "bool"
        }
      ],
      "stateMutability": "view",
      "type": "function"
    },
    {
      "inputs": [],
      "name": "name",
      "outputs": [
        {
          "internalType": "string",
          "name": "",
          "type": "string"
        }
      ],
      "stateMutability": "view",
      "type": "function"
    },
    {
      "inputs": [],
      "name": "nextPersonId",
      "outputs": [
        {
          "internalType": "uint256",
          "name": "",
          "type": "uint256"
        }
      ],
      "stateMutability": "view",
      "type": "function"
    },
    {
      "inputs": [],
      "name": "owner",
      "outputs": [
        {
          "internalType": "address",
          "name": "",
          "type": "address"
        }
      ],
      "stateMutability": "view",
      "type": "function"
    },
    {
      "inputs": [
        {
          "internalType": "uint256",
          "name": "",
          "type": "uint256"
        }
      ],
      "name": "personObject",
      "outputs": [
        {
          "internalType": "string",
          "name": "name",
          "type": "string"
        },
        {
          "internalType": "uint256",
          "name": "id",
          "type": "uint256"
        },
        {
          "internalType": "uint256",
          "name": "age",
          "type": "uint256"
        },
        {
          "internalType": "address",
          "name": "creator",
          "type": "address"
        },
        {
          "internalType": "bool",
          "name": "exists",
          "type": "bool"
        }
      ],
      "stateMutability": "view",
      "type": "function"
    },
    {
      "inputs": [
        {
          "internalType": "uint256",
          "name": "_id",
          "type": "uint256"
        },
        {
          "internalType": "string",
          "name": "_name",
          "type": "string"
        }
      ],
      "name": "removePerson",
      "outputs": [
        {
          "internalType": "bool",
          "name": "",
          "type": "bool"
        }
      ],
      "stateMutability": "nonpayable",
      "type": "function"
    },
    {
      "inputs": [
        {
          "internalType": "bytes32",
          "name": "role",
          "type": "bytes32"
        },
        {
          "internalType": "address",
          "name": "account",
          "type": "address"
        }
      ],
      "name": "renounceRole",
      "outputs": [],
      "stateMutability": "nonpayable",
      "type": "function"
    },
    {
      "inputs": [
        {
          "internalType": "bytes32",
          "name": "role",
          "type": "bytes32"
        },
        {
          "internalType": "address",
          "name": "account",
          "type": "address"
        }
      ],
      "name": "revokeRole",
      "outputs": [],
      "stateMutability": "nonpayable",
      "type": "function"
    },
    {
      "inputs": [
        {
          "internalType": "bytes4",
          "name": "interfaceId",
          "type": "bytes4"
        }
      ],
      "name": "supportsInterface",
      "outputs": [
        {
          "internalType": "bool",
          "name": "",
          "type": "bool"
        }
      ],
      "stateMutability": "view",
      "type": "function"
    },
    {
      "inputs": [],
      "name": "symbol",
      "outputs": [
        {
          "internalType": "string",
          "name": "",
          "type": "string"
        }
      ],
      "stateMutability": "view",
      "type": "function"
    },
    {
      "inputs": [],
      "name": "totalSupply",
      "outputs": [
        {
          "internalType": "uint256",
          "name": "",
          "type": "uint256"
        }
      ],
      "stateMutability": "view",
      "type": "function"
    },
    {
      "inputs": [
        {
          "internalType": "address",
          "name": "to",
          "type": "address"
        },
        {
          "internalType": "uint256",
          "name": "amount",
          "type": "uint256"
        }
      ],
      "name": "transfer",
      "outputs": [
        {
          "internalType": "bool",
          "name": "",
          "type": "bool"
        }
      ],
      "stateMutability": "nonpayable",
      "type": "function"
    },
    {
      "inputs": [
        {
          "internalType": "address",
          "name": "from",
          "type": "address"
        },
        {
          "internalType": "address",
          "name": "to",
          "type": "address"
        },
        {
          "internalType": "uint256",
          "name": "amount",
          "type": "uint256"
        }
      ],
      "name": "transferFrom",
      "outputs": [
        {
          "internalType": "bool",
          "name": "",
          "type": "bool"
        }
      ],
      "stateMutability": "nonpayable",
      "type": "function"
    }
  ],
  "bytecode": "0x608060405234801561001057600080fd5b506040516145aa3803806145aa83398181016040528101906100329190610446565b6040518060400160405280600681526020017f504552534f4e00000000000000000000000000000000000000000000000000008152506040518060400160405280600381526020017f50524e000000000000000000000000000000000000000000000000000000000081525081600390816100ad91906106c3565b5080600490816100bd91906106c3565b50505060016006819055506100f87fa49807205ce4d355092ef5a8a18f56e8913cf4a201fbe287825b095693c217758261011760201b60201c565b61011133683635c9adc5dea0000061020460201b60201c565b5061089f565b610127828261036660201b60201c565b6102005760016005600084815260200190815260200160002060000160008373ffffffffffffffffffffffffffffffffffffffff1673ffffffffffffffffffffffffffffffffffffffff16815260200190815260200160002060006101000a81548160ff0219169083151502179055506101a56103d160201b60201c565b73ffffffffffffffffffffffffffffffffffffffff168173ffffffffffffffffffffffffffffffffffffffff16837f2f8788117e7eff1d82e926ec794901d17c78024a50270940304540a733656f0d60405160405180910390a45b5050565b600073ffffffffffffffffffffffffffffffffffffffff168273ffffffffffffffffffffffffffffffffffffffff1603610273576040517f08c379a000000000000000000000000000000000000000000000000000000000815260040161026a906107f2565b60405180910390fd5b610285600083836103d960201b60201c565b80600260008282546102979190610841565b92505081905550806000808473ffffffffffffffffffffffffffffffffffffffff1673ffffffffffffffffffffffffffffffffffffffff168152602001908152602001600020600082825401925050819055508173ffffffffffffffffffffffffffffffffffffffff16600073ffffffffffffffffffffffffffffffffffffffff167fddf252ad1be2c89b69c2b068fc378daa952ba7f163c4a11628f55a4df523b3ef836040516103489190610884565b60405180910390a3610362600083836103de60201b60201c565b5050565b60006005600084815260200190815260200160002060000160008373ffffffffffffffffffffffffffffffffffffffff1673ffffffffffffffffffffffffffffffffffffffff16815260200190815260200160002060009054906101000a900460ff16905092915050565b600033905090565b505050565b505050565b600080fd5b600073ffffffffffffffffffffffffffffffffffffffff82169050919050565b6000610413826103e8565b9050919050565b61042381610408565b811461042e57600080fd5b50565b6000815190506104408161041a565b92915050565b60006020828403121561045c5761045b6103e3565b5b600061046a84828501610431565b91505092915050565b600081519050919050565b7f4e487b7100000000000000000000000000000000000000000000000000000000600052604160045260246000fd5b7f4e487b7100000000000000000000000000000000000000000000000000000000600052602260045260246000fd5b600060028204905060018216806104f457607f821691505b602082108103610507576105066104ad565b5b50919050565b60008190508160005260206000209050919050565b60006020601f8301049050919050565b600082821b905092915050565b60006008830261056f7fffffffffffffffffffffffffffffffffffffffffffffffffffffffffffffffff82610532565b6105798683610532565b95508019841693508086168417925050509392505050565b6000819050919050565b6000819050919050565b60006105c06105bb6105b684610591565b61059b565b610591565b9050919050565b6000819050919050565b6105da836105a5565b6105ee6105e6826105c7565b84845461053f565b825550505050565b600090565b6106036105f6565b61060e8184846105d1565b505050565b5b81811015610632576106276000826105fb565b600181019050610614565b5050565b601f821115610677576106488161050d565b61065184610522565b81016020851015610660578190505b61067461066c85610522565b830182610613565b50505b505050565b600082821c905092915050565b600061069a6000198460080261067c565b1980831691505092915050565b60006106b38383610689565b9150826002028217905092915050565b6106cc82610473565b67ffffffffffffffff8111156106e5576106e461047e565b5b6106ef82546104dc565b6106fa828285610636565b600060209050601f83116001811461072d576000841561071b578287015190505b61072585826106a7565b86555061078d565b601f19841661073b8661050d565b60005b828110156107635784890151825560018201915060208501945060208101905061073e565b86831015610780578489015161077c601f891682610689565b8355505b6001600288020188555050505b505050505050565b600082825260208201905092915050565b7f45524332303a206d696e7420746f20746865207a65726f206164647265737300600082015250565b60006107dc601f83610795565b91506107e7826107a6565b602082019050919050565b6000602082019050818103600083015261080b816107cf565b9050919050565b7f4e487b7100000000000000000000000000000000000000000000000000000000600052601160045260246000fd5b600061084c82610591565b915061085783610591565b925082820190508082111561086f5761086e610812565b5b92915050565b61087e81610591565b82525050565b60006020820190506108996000830184610875565b92915050565b613cfc806108ae6000396000f3fe608060405234801561001057600080fd5b50600436106101cf5760003560e01c806369dc9e9b1161010457806391d14854116100a2578063a9059cbb11610071578063a9059cbb1461058c578063d35bd4ff146105bc578063d547741f146105ec578063dd62ed3e14610608576101cf565b806391d14854146104f057806395d89b4114610520578063a217fddf1461053e578063a457c2d71461055c576101cf565b806375b238fc116100de57806375b238fc146104785780637fa4ba87146104965780638da5cb5b146104b45780638fdea6b6146104d2576101cf565b806369dc9e9b146103f65780636dce630e1461041457806370a0823114610448576101cf565b80632ebce63111610171578063313ce5671161014b578063313ce5671461036e57806332cb6b0c1461038c57806336568abe146103aa57806339509351146103c6576101cf565b80632ebce631146103005780632f2ff15d146103345780632ff2e9dc14610350576101cf565b806318160ddd116101ad57806318160ddd146102525780631ef455c71461027057806323b872dd146102a0578063248a9ca3146102d0576101cf565b806301ffc9a7146101d457806306fdde0314610204578063095ea7b314610222575b600080fd5b6101ee60048036038101906101e991906124bb565b610638565b6040516101fb9190612503565b60405180910390f35b61020c6106b2565b60405161021991906125ae565b60405180910390f35b61023c60048036038101906102379190612664565b610744565b6040516102499190612503565b60405180910390f35b61025a610767565b60405161026791906126b3565b60405180910390f35b61028a60048036038101906102859190612803565b610771565b6040516102979190612503565b60405180910390f35b6102ba60048036038101906102b5919061285f565b610a6c565b6040516102c79190612503565b60405180910390f35b6102ea60048036038101906102e591906128e8565b610a9b565b6040516102f79190612924565b60405180910390f35b61031a6004803603810190610315919061293f565b610abb565b60405161032b95949392919061297b565b60405180910390f35b61034e600480360381019061034991906129d5565b610bb6565b005b610358610bd7565b60405161036591906126b3565b60405180910390f35b610376610be4565b6040516103839190612a31565b60405180910390f35b610394610bed565b6040516103a191906126b3565b60405180910390f35b6103c460048036038101906103bf91906129d5565b610bfb565b005b6103e060048036038101906103db9190612664565b610c7e565b6040516103ed9190612503565b60405180910390f35b6103fe610cb5565b60405161040b91906126b3565b60405180910390f35b61042e6004803603810190610429919061293f565b610cbb565b60405161043f95949392919061297b565b60405180910390f35b610462600480360381019061045d9190612a4c565b610da6565b60405161046f91906126b3565b60405180910390f35b610480610dee565b60405161048d9190612924565b60405180910390f35b61049e610e12565b6040516104ab9190612c28565b60405180910390f35b6104bc610f88565b6040516104c99190612c4a565b60405180910390f35b6104da610fae565b6040516104e791906126b3565b60405180910390f35b61050a600480360381019061050591906129d5565b610fba565b6040516105179190612503565b60405180910390f35b610528611025565b60405161053591906125ae565b60405180910390f35b6105466110b7565b6040516105539190612924565b60405180910390f35b61057660048036038101906105719190612664565b6110be565b6040516105839190612503565b60405180910390f35b6105a660048036038101906105a19190612664565b611135565b6040516105b39190612503565b60405180910390f35b6105d660048036038101906105d19190612c65565b611158565b6040516105e39190612503565b60405180910390f35b610606600480360381019061060191906129d5565b61161b565b005b610622600480360381019061061d9190612cc1565b61163c565b60405161062f91906126b3565b60405180910390f35b60007f7965db0b000000000000000000000000000000000000000000000000000000007bffffffffffffffffffffffffffffffffffffffffffffffffffffffff1916827bffffffffffffffffffffffffffffffffffffffffffffffffffffffff191614806106ab57506106aa826116c3565b5b9050919050565b6060600380546106c190612d30565b80601f01602080910402602001604051908101604052809291908181526020018280546106ed90612d30565b801561073a5780601f1061070f5761010080835404028352916020019161073a565b820191906000526020600020905b81548152906001019060200180831161071d57829003601f168201915b5050505050905090565b60008061074f61172d565b905061075c818585611735565b600191505092915050565b6000600254905090565b600080151560086000600654815260200190815260200160002060030160149054906101000a900460ff161515146107de576040517f08c379a00000000000000000000000000000000000000000000000000000000081526004016107d590612dad565b60405180910390fd5b69152d02c7e14af6800000674563918244f400006107fa610767565b6108049190612dfc565b1115610845576040517f08c379a000000000000000000000000000000000000000000000000000000000815260040161083c90612e7c565b60405180910390fd5b60006040518060a0016040528085815260200160065481526020018481526020013373ffffffffffffffffffffffffffffffffffffffff168152602001600115158152509050600981908060018154018082558091505060019003906000526020600020906004020160009091909190915060008201518160000190816108cc9190613048565b50602082015181600101556040820151816002015560608201518160030160006101000a81548173ffffffffffffffffffffffffffffffffffffffff021916908373ffffffffffffffffffffffffffffffffffffffff16021790555060808201518160030160146101000a81548160ff02191690831515021790555050508060086000600654815260200190815260200160002060008201518160000190816109759190613048565b50602082015181600101556040820151816002015560608201518160030160006101000a81548173ffffffffffffffffffffffffffffffffffffffff021916908373ffffffffffffffffffffffffffffffffffffffff16021790555060808201518160030160146101000a81548160ff021916908315150217905550905050610a0633674563918244f400006118fe565b60066000815480929190610a199061311a565b91905055508284604051610a2d919061319e565b60405180910390207fd5d416d1b4fa069b92bebf4e54a87b777a635a2c8ae3c893c4ab5f4dfdfa8bf160405160405180910390a3600191505092915050565b600080610a7761172d565b9050610a84858285611a54565b610a8f858585611ae0565b60019150509392505050565b600060056000838152602001908152602001600020600101549050919050565b60098181548110610acb57600080fd5b9060005260206000209060040201600091509050806000018054610aee90612d30565b80601f0160208091040260200160405190810160405280929190818152602001828054610b1a90612d30565b8015610b675780601f10610b3c57610100808354040283529160200191610b67565b820191906000526020600020905b815481529060010190602001808311610b4a57829003601f168201915b5050505050908060010154908060020154908060030160009054906101000a900473ffffffffffffffffffffffffffffffffffffffff16908060030160149054906101000a900460ff16905085565b610bbf82610a9b565b610bc881611d56565b610bd28383611d6a565b505050565b683635c9adc5dea0000081565b60006012905090565b69152d02c7e14af680000081565b610c0361172d565b73ffffffffffffffffffffffffffffffffffffffff168173ffffffffffffffffffffffffffffffffffffffff1614610c70576040517f08c379a0000000000000000000000000000000000000000000000000000000008152600401610c6790613227565b60405180910390fd5b610c7a8282611e4b565b5050565b600080610c8961172d565b9050610caa818585610c9b858961163c565b610ca59190612dfc565b611735565b600191505092915050565b60065481565b6008602052806000526040600020600091509050806000018054610cde90612d30565b80601f0160208091040260200160405190810160405280929190818152602001828054610d0a90612d30565b8015610d575780601f10610d2c57610100808354040283529160200191610d57565b820191906000526020600020905b815481529060010190602001808311610d3a57829003601f168201915b5050505050908060010154908060020154908060030160009054906101000a900473ffffffffffffffffffffffffffffffffffffffff16908060030160149054906101000a900460ff16905085565b60008060008373ffffffffffffffffffffffffffffffffffffffff1673ffffffffffffffffffffffffffffffffffffffff168152602001908152602001600020549050919050565b7fa49807205ce4d355092ef5a8a18f56e8913cf4a201fbe287825b095693c2177581565b60606009805480602002602001604051908101604052809291908181526020016000905b82821015610f7f57838290600052602060002090600402016040518060a0016040529081600082018054610e6990612d30565b80601f0160208091040260200160405190810160405280929190818152602001828054610e9590612d30565b8015610ee25780601f10610eb757610100808354040283529160200191610ee2565b820191906000526020600020905b815481529060010190602001808311610ec557829003601f168201915b5050505050815260200160018201548152602001600282015481526020016003820160009054906101000a900473ffffffffffffffffffffffffffffffffffffffff1673ffffffffffffffffffffffffffffffffffffffff1673ffffffffffffffffffffffffffffffffffffffff1681526020016003820160149054906101000a900460ff16151515158152505081526020019060010190610e36565b50505050905090565b600760009054906101000a900473ffffffffffffffffffffffffffffffffffffffff1681565b674563918244f4000081565b60006005600084815260200190815260200160002060000160008373ffffffffffffffffffffffffffffffffffffffff1673ffffffffffffffffffffffffffffffffffffffff16815260200190815260200160002060009054906101000a900460ff16905092915050565b60606004805461103490612d30565b80601f016020809104026020016040519081016040528092919081815260200182805461106090612d30565b80156110ad5780601f10611082576101008083540402835291602001916110ad565b820191906000526020600020905b81548152906001019060200180831161109057829003601f168201915b5050505050905090565b6000801b81565b6000806110c961172d565b905060006110d7828661163c565b90508381101561111c576040517f08c379a0000000000000000000000000000000000000000000000000000000008152600401611113906132b9565b60405180910390fd5b6111298286868403611735565b60019250505092915050565b60008061114061172d565b905061114d818585611ae0565b600191505092915050565b60006111847fa49807205ce4d355092ef5a8a18f56e8913cf4a201fbe287825b095693c2177533610fba565b6111c3576040517f08c379a00000000000000000000000000000000000000000000000000000000081526004016111ba90613325565b60405180910390fd5b6008600084815260200190815260200160002060030160149054906101000a900460ff16611226576040517f08c379a000000000000000000000000000000000000000000000000000000000815260040161121d90613391565b60405180910390fd5b674563918244f4000061126e6008600086815260200190815260200160002060030160009054906101000a900473ffffffffffffffffffffffffffffffffffffffff16610da6565b10156112af576040517f08c379a00000000000000000000000000000000000000000000000000000000081526004016112a6906133fd565b60405180910390fd5b60005b6009805490508110156115145783600982815481106112d4576112d361341d565b5b9060005260206000209060040201600101541480156113625750826040516020016112ff919061319e565b60405160208183030381529060405280519060200120600982815481106113295761132861341d565b5b906000526020600020906004020160000160405160200161134a91906134cf565b60405160208183030381529060405280519060200120145b15611507576009600160098054905061137b91906134e6565b8154811061138c5761138b61341d565b5b9060005260206000209060040201600982815481106113ae576113ad61341d565b5b9060005260206000209060040201600082018160000190816113d09190613530565b5060018201548160010155600282015481600201556003820160009054906101000a900473ffffffffffffffffffffffffffffffffffffffff168160030160006101000a81548173ffffffffffffffffffffffffffffffffffffffff021916908373ffffffffffffffffffffffffffffffffffffffff1602179055506003820160149054906101000a900460ff168160030160146101000a81548160ff021916908315150217905550905050600980548061148e5761148d613618565b5b6001900381819060005260206000209060040201600080820160006114b391906123f2565b600182016000905560028201600090556003820160006101000a81549073ffffffffffffffffffffffffffffffffffffffff02191690556003820160146101000a81549060ff021916905550509055611514565b80806001019150506112b2565b5061155d6008600085815260200190815260200160002060030160009054906101000a900473ffffffffffffffffffffffffffffffffffffffff16674563918244f40000611f2d565b600860008481526020019081526020016000206000808201600061158191906123f2565b600182016000905560028201600090556003820160006101000a81549073ffffffffffffffffffffffffffffffffffffffff02191690556003820160146101000a81549060ff0219169055505082826040516115dd919061319e565b60405180910390207f17a6329b86f86ad2e6859d0e29ee76829f9afc173b79c3622e17ac9d0ab4328560405160405180910390a36001905092915050565b61162482610a9b565b61162d81611d56565b6116378383611e4b565b505050565b6000600160008473ffffffffffffffffffffffffffffffffffffffff1673ffffffffffffffffffffffffffffffffffffffff16815260200190815260200160002060008373ffffffffffffffffffffffffffffffffffffffff1673ffffffffffffffffffffffffffffffffffffffff16815260200190815260200160002054905092915050565b60007f01ffc9a7000000000000000000000000000000000000000000000000000000007bffffffffffffffffffffffffffffffffffffffffffffffffffffffff1916827bffffffffffffffffffffffffffffffffffffffffffffffffffffffff1916149050919050565b600033905090565b600073ffffffffffffffffffffffffffffffffffffffff168373ffffffffffffffffffffffffffffffffffffffff16036117a4576040517f08c379a000000000000000000000000000000000000000000000000000000000815260040161179b906136b9565b60405180910390fd5b600073ffffffffffffffffffffffffffffffffffffffff168273ffffffffffffffffffffffffffffffffffffffff1603611813576040517f08c379a000000000000000000000000000000000000000000000000000000000815260040161180a9061374b565b60405180910390fd5b80600160008573ffffffffffffffffffffffffffffffffffffffff1673ffffffffffffffffffffffffffffffffffffffff16815260200190815260200160002060008473ffffffffffffffffffffffffffffffffffffffff1673ffffffffffffffffffffffffffffffffffffffff168152602001908152602001600020819055508173ffffffffffffffffffffffffffffffffffffffff168373ffffffffffffffffffffffffffffffffffffffff167f8c5be1e5ebec7d5bd14f71427d1e84f3dd0314c0f7b2291e5b200ac8c7c3b925836040516118f191906126b3565b60405180910390a3505050565b600073ffffffffffffffffffffffffffffffffffffffff168273ffffffffffffffffffffffffffffffffffffffff160361196d576040517f08c379a0000000000000000000000000000000000000000000000000000000008152600401611964906137b7565b60405180910390fd5b611979600083836120fa565b806002600082825461198b9190612dfc565b92505081905550806000808473ffffffffffffffffffffffffffffffffffffffff1673ffffffffffffffffffffffffffffffffffffffff168152602001908152602001600020600082825401925050819055508173ffffffffffffffffffffffffffffffffffffffff16600073ffffffffffffffffffffffffffffffffffffffff167fddf252ad1be2c89b69c2b068fc378daa952ba7f163c4a11628f55a4df523b3ef83604051611a3c91906126b3565b60405180910390a3611a50600083836120ff565b5050565b6000611a60848461163c565b90507fffffffffffffffffffffffffffffffffffffffffffffffffffffffffffffffff8114611ada5781811015611acc576040517f08c379a0000000000000000000000000000000000000000000000000000000008152600401611ac390613823565b60405180910390fd5b611ad98484848403611735565b5b50505050565b600073ffffffffffffffffffffffffffffffffffffffff168373ffffffffffffffffffffffffffffffffffffffff1603611b4f576040517f08c379a0000000000000000000000000000000000000000000000000000000008152600401611b46906138b5565b60405180910390fd5b600073ffffffffffffffffffffffffffffffffffffffff168273ffffffffffffffffffffffffffffffffffffffff1603611bbe576040517f08c379a0000000000000000000000000000000000000000000000000000000008152600401611bb590613947565b60405180910390fd5b611bc98383836120fa565b60008060008573ffffffffffffffffffffffffffffffffffffffff1673ffffffffffffffffffffffffffffffffffffffff16815260200190815260200160002054905081811015611c4f576040517f08c379a0000000000000000000000000000000000000000000000000000000008152600401611c46906139d9565b60405180910390fd5b8181036000808673ffffffffffffffffffffffffffffffffffffffff1673ffffffffffffffffffffffffffffffffffffffff16815260200190815260200160002081905550816000808573ffffffffffffffffffffffffffffffffffffffff1673ffffffffffffffffffffffffffffffffffffffff168152602001908152602001600020600082825401925050819055508273ffffffffffffffffffffffffffffffffffffffff168473ffffffffffffffffffffffffffffffffffffffff167fddf252ad1be2c89b69c2b068fc378daa952ba7f163c4a11628f55a4df523b3ef84604051611d3d91906126b3565b60405180910390a3611d508484846120ff565b50505050565b611d6781611d6261172d565b612104565b50565b611d748282610fba565b611e475760016005600084815260200190815260200160002060000160008373ffffffffffffffffffffffffffffffffffffffff1673ffffffffffffffffffffffffffffffffffffffff16815260200190815260200160002060006101000a81548160ff021916908315150217905550611dec61172d565b73ffffffffffffffffffffffffffffffffffffffff168173ffffffffffffffffffffffffffffffffffffffff16837f2f8788117e7eff1d82e926ec794901d17c78024a50270940304540a733656f0d60405160405180910390a45b5050565b611e558282610fba565b15611f295760006005600084815260200190815260200160002060000160008373ffffffffffffffffffffffffffffffffffffffff1673ffffffffffffffffffffffffffffffffffffffff16815260200190815260200160002060006101000a81548160ff021916908315150217905550611ece61172d565b73ffffffffffffffffffffffffffffffffffffffff168173ffffffffffffffffffffffffffffffffffffffff16837ff6391f5c32d9c69d2a47ea670b442974b53935d1edc7fd64eb21e047a839171b60405160405180910390a45b5050565b600073ffffffffffffffffffffffffffffffffffffffff168273ffffffffffffffffffffffffffffffffffffffff1603611f9c576040517f08c379a0000000000000000000000000000000000000000000000000000000008152600401611f9390613a6b565b60405180910390fd5b611fa8826000836120fa565b60008060008473ffffffffffffffffffffffffffffffffffffffff1673ffffffffffffffffffffffffffffffffffffffff1681526020019081526020016000205490508181101561202e576040517f08c379a000000000000000000000000000000000000000000000000000000000815260040161202590613afd565b60405180910390fd5b8181036000808573ffffffffffffffffffffffffffffffffffffffff1673ffffffffffffffffffffffffffffffffffffffff1681526020019081526020016000208190555081600260008282540392505081905550600073ffffffffffffffffffffffffffffffffffffffff168373ffffffffffffffffffffffffffffffffffffffff167fddf252ad1be2c89b69c2b068fc378daa952ba7f163c4a11628f55a4df523b3ef846040516120e191906126b3565b60405180910390a36120f5836000846120ff565b505050565b505050565b505050565b61210e8282610fba565b6121855761211b81612189565b6121298360001c60206121b6565b60405160200161213a929190613bb5565b6040516020818303038152906040526040517f08c379a000000000000000000000000000000000000000000000000000000000815260040161217c91906125ae565b60405180910390fd5b5050565b60606121af8273ffffffffffffffffffffffffffffffffffffffff16601460ff166121b6565b9050919050565b6060600060028360026121c99190613bef565b6121d39190612dfc565b67ffffffffffffffff8111156121ec576121eb6126d8565b5b6040519080825280601f01601f19166020018201604052801561221e5781602001600182028036833780820191505090505b5090507f3000000000000000000000000000000000000000000000000000000000000000816000815181106122565761225561341d565b5b60200101907effffffffffffffffffffffffffffffffffffffffffffffffffffffffffffff1916908160001a9053507f7800000000000000000000000000000000000000000000000000000000000000816001815181106122ba576122b961341d565b5b60200101907effffffffffffffffffffffffffffffffffffffffffffffffffffffffffffff1916908160001a905350600060018460026122fa9190613bef565b6123049190612dfc565b90505b60018111156123a4577f3031323334353637383961626364656600000000000000000000000000000000600f8616601081106123465761234561341d565b5b1a60f81b82828151811061235d5761235c61341d565b5b60200101907effffffffffffffffffffffffffffffffffffffffffffffffffffffffffffff1916908160001a905350600485901c94508061239d90613c31565b9050612307565b50600084146123e8576040517f08c379a00000000000000000000000000000000000000000000000000000000081526004016123df90613ca6565b60405180910390fd5b8091505092915050565b5080546123fe90612d30565b6000825580601f10612410575061242f565b601f01602090049060005260206000209081019061242e9190612432565b5b50565b5b8082111561244b576000816000905550600101612433565b5090565b6000604051905090565b600080fd5b600080fd5b60007fffffffff0000000000000000000000000000000000000000000000000000000082169050919050565b61249881612463565b81146124a357600080fd5b50565b6000813590506124b58161248f565b92915050565b6000602082840312156124d1576124d0612459565b5b60006124df848285016124a6565b91505092915050565b60008115159050919050565b6124fd816124e8565b82525050565b600060208201905061251860008301846124f4565b92915050565b600081519050919050565b600082825260208201905092915050565b60005b8381101561255857808201518184015260208101905061253d565b60008484015250505050565b6000601f19601f8301169050919050565b60006125808261251e565b61258a8185612529565b935061259a81856020860161253a565b6125a381612564565b840191505092915050565b600060208201905081810360008301526125c88184612575565b905092915050565b600073ffffffffffffffffffffffffffffffffffffffff82169050919050565b60006125fb826125d0565b9050919050565b61260b816125f0565b811461261657600080fd5b50565b60008135905061262881612602565b92915050565b6000819050919050565b6126418161262e565b811461264c57600080fd5b50565b60008135905061265e81612638565b92915050565b6000806040838503121561267b5761267a612459565b5b600061268985828601612619565b925050602061269a8582860161264f565b9150509250929050565b6126ad8161262e565b82525050565b60006020820190506126c860008301846126a4565b92915050565b600080fd5b600080fd5b7f4e487b7100000000000000000000000000000000000000000000000000000000600052604160045260246000fd5b61271082612564565b810181811067ffffffffffffffff8211171561272f5761272e6126d8565b5b80604052505050565b600061274261244f565b905061274e8282612707565b919050565b600067ffffffffffffffff82111561276e5761276d6126d8565b5b61277782612564565b9050602081019050919050565b82818337600083830152505050565b60006127a66127a184612753565b612738565b9050828152602081018484840111156127c2576127c16126d3565b5b6127cd848285612784565b509392505050565b600082601f8301126127ea576127e96126ce565b5b81356127fa848260208601612793565b91505092915050565b6000806040838503121561281a57612819612459565b5b600083013567ffffffffffffffff8111156128385761283761245e565b5b612844858286016127d5565b92505060206128558582860161264f565b9150509250929050565b60008060006060848603121561287857612877612459565b5b600061288686828701612619565b935050602061289786828701612619565b92505060406128a88682870161264f565b9150509250925092565b6000819050919050565b6128c5816128b2565b81146128d057600080fd5b50565b6000813590506128e2816128bc565b92915050565b6000602082840312156128fe576128fd612459565b5b600061290c848285016128d3565b91505092915050565b61291e816128b2565b82525050565b60006020820190506129396000830184612915565b92915050565b60006020828403121561295557612954612459565b5b60006129638482850161264f565b91505092915050565b612975816125f0565b82525050565b600060a08201905081810360008301526129958188612575565b90506129a460208301876126a4565b6129b160408301866126a4565b6129be606083018561296c565b6129cb60808301846124f4565b9695505050505050565b600080604083850312156129ec576129eb612459565b5b60006129fa858286016128d3565b9250506020612a0b85828601612619565b9150509250929050565b600060ff82169050919050565b612a2b81612a15565b82525050565b6000602082019050612a466000830184612a22565b92915050565b600060208284031215612a6257612a61612459565b5b6000612a7084828501612619565b91505092915050565b600081519050919050565b600082825260208201905092915050565b6000819050602082019050919050565b600082825260208201905092915050565b6000612ac18261251e565b612acb8185612aa5565b9350612adb81856020860161253a565b612ae481612564565b840191505092915050565b612af88161262e565b82525050565b612b07816125f0565b82525050565b612b16816124e8565b82525050565b600060a0830160008301518482036000860152612b398282612ab6565b9150506020830151612b4e6020860182612aef565b506040830151612b616040860182612aef565b506060830151612b746060860182612afe565b506080830151612b876080860182612b0d565b508091505092915050565b6000612b9e8383612b1c565b905092915050565b6000602082019050919050565b6000612bbe82612a79565b612bc88185612a84565b935083602082028501612bda85612a95565b8060005b85811015612c165784840389528151612bf78582612b92565b9450612c0283612ba6565b925060208a01995050600181019050612bde565b50829750879550505050505092915050565b60006020820190508181036000830152612c428184612bb3565b905092915050565b6000602082019050612c5f600083018461296c565b92915050565b60008060408385031215612c7c57612c7b612459565b5b6000612c8a8582860161264f565b925050602083013567ffffffffffffffff811115612cab57612caa61245e565b5b612cb7858286016127d5565b9150509250929050565b60008060408385031215612cd857612cd7612459565b5b6000612ce685828601612619565b9250506020612cf785828601612619565b9150509250929050565b7f4e487b7100000000000000000000000000000000000000000000000000000000600052602260045260246000fd5b60006002820490506001821680612d4857607f821691505b602082108103612d5b57612d5a612d01565b5b50919050565b7f5468697320706572736f6e20616c726561647920657869737473000000000000600082015250565b6000612d97601a83612529565b9150612da282612d61565b602082019050919050565b60006020820190508181036000830152612dc681612d8a565b9050919050565b7f4e487b7100000000000000000000000000000000000000000000000000000000600052601160045260246000fd5b6000612e078261262e565b9150612e128361262e565b9250828201905080821115612e2a57612e29612dcd565b5b92915050565b7f4d617820737570706c7920726561636865640000000000000000000000000000600082015250565b6000612e66601283612529565b9150612e7182612e30565b602082019050919050565b60006020820190508181036000830152612e9581612e59565b9050919050565b60008190508160005260206000209050919050565b60006020601f8301049050919050565b600082821b905092915050565b600060088302612efe7fffffffffffffffffffffffffffffffffffffffffffffffffffffffffffffffff82612ec1565b612f088683612ec1565b95508019841693508086168417925050509392505050565b6000819050919050565b6000612f45612f40612f3b8461262e565b612f20565b61262e565b9050919050565b6000819050919050565b612f5f83612f2a565b612f73612f6b82612f4c565b848454612ece565b825550505050565b600090565b612f88612f7b565b612f93818484612f56565b505050565b5b81811015612fb757612fac600082612f80565b600181019050612f99565b5050565b601f821115612ffc57612fcd81612e9c565b612fd684612eb1565b81016020851015612fe5578190505b612ff9612ff185612eb1565b830182612f98565b50505b505050565b600082821c905092915050565b600061301f60001984600802613001565b1980831691505092915050565b6000613038838361300e565b9150826002028217905092915050565b6130518261251e565b67ffffffffffffffff81111561306a576130696126d8565b5b6130748254612d30565b61307f828285612fbb565b600060209050601f8311600181146130b257600084156130a0578287015190505b6130aa858261302c565b865550613112565b601f1984166130c086612e9c565b60005b828110156130e8578489015182556001820191506020850194506020810190506130c3565b868310156131055784890151613101601f89168261300e565b8355505b6001600288020188555050505b505050505050565b60006131258261262e565b91507fffffffffffffffffffffffffffffffffffffffffffffffffffffffffffffffff820361315757613156612dcd565b5b600182019050919050565b600081905092915050565b60006131788261251e565b6131828185613162565b935061319281856020860161253a565b80840191505092915050565b60006131aa828461316d565b915081905092915050565b7f416363657373436f6e74726f6c3a2063616e206f6e6c792072656e6f756e636560008201527f20726f6c657320666f722073656c660000000000000000000000000000000000602082015250565b6000613211602f83612529565b915061321c826131b5565b604082019050919050565b6000602082019050818103600083015261324081613204565b9050919050565b7f45524332303a2064656372656173656420616c6c6f77616e63652062656c6f7760008201527f207a65726f000000000000000000000000000000000000000000000000000000602082015250565b60006132a3602583612529565b91506132ae82613247565b604082019050919050565b600060208201905081810360008301526132d281613296565b9050919050565b7f596f75277265206e6f7420746865206f776e6572210000000000000000000000600082015250565b600061330f601583612529565b915061331a826132d9565b602082019050919050565b6000602082019050818103600083015261333e81613302565b9050919050565b7f506572736f6e206e6f7420666f756e6421000000000000000000000000000000600082015250565b600061337b601183612529565b915061338682613345565b602082019050919050565b600060208201905081810360008301526133aa8161336e565b9050919050565b7f496e73756666696369656e742062616c616e6365000000000000000000000000600082015250565b60006133e7601483612529565b91506133f2826133b1565b602082019050919050565b60006020820190508181036000830152613416816133da565b9050919050565b7f4e487b7100000000000000000000000000000000000000000000000000000000600052603260045260246000fd5b6000815461345981612d30565b6134638186613162565b9450600182166000811461347e5760018114613493576134c6565b60ff19831686528115158202860193506134c6565b61349c85612e9c565b60005b838110156134be5781548189015260018201915060208101905061349f565b838801955050505b50505092915050565b60006134db828461344c565b915081905092915050565b60006134f18261262e565b91506134fc8361262e565b925082820390508181111561351457613513612dcd565b5b92915050565b60008154905061352981612d30565b9050919050565b81810361353e575050613616565b6135478261351a565b67ffffffffffffffff8111156135605761355f6126d8565b5b61356a8254612d30565b613575828285612fbb565b6000601f8311600181146135a45760008415613592578287015490505b61359c858261302c565b86555061360f565b601f1984166135b287612e9c565b96506135bd86612e9c565b60005b828110156135e5578489015482556001820191506001850194506020810190506135c0565b8683101561360257848901546135fe601f89168261300e565b8355505b6001600288020188555050505b5050505050505b565b7f4e487b7100000000000000000000000000000000000000000000000000000000600052603160045260246000fd5b7f45524332303a20617070726f76652066726f6d20746865207a65726f2061646460008201527f7265737300000000000000000000000000000000000000000000000000000000602082015250565b60006136a3602483612529565b91506136ae82613647565b604082019050919050565b600060208201905081810360008301526136d281613696565b9050919050565b7f45524332303a20617070726f766520746f20746865207a65726f20616464726560008201527f7373000000000000000000000000000000000000000000000000000000000000602082015250565b6000613735602283612529565b9150613740826136d9565b604082019050919050565b6000602082019050818103600083015261376481613728565b9050919050565b7f45524332303a206d696e7420746f20746865207a65726f206164647265737300600082015250565b60006137a1601f83612529565b91506137ac8261376b565b602082019050919050565b600060208201905081810360008301526137d081613794565b9050919050565b7f45524332303a20696e73756666696369656e7420616c6c6f77616e6365000000600082015250565b600061380d601d83612529565b9150613818826137d7565b602082019050919050565b6000602082019050818103600083015261383c81613800565b9050919050565b7f45524332303a207472616e736665722066726f6d20746865207a65726f20616460008201527f6472657373000000000000000000000000000000000000000000000000000000602082015250565b600061389f602583612529565b91506138aa82613843565b604082019050919050565b600060208201905081810360008301526138ce81613892565b9050919050565b7f45524332303a207472616e7366657220746f20746865207a65726f206164647260008201527f6573730000000000000000000000000000000000000000000000000000000000602082015250565b6000613931602383612529565b915061393c826138d5565b604082019050919050565b6000602082019050818103600083015261396081613924565b9050919050565b7f45524332303a207472616e7366657220616d6f756e742065786365656473206260008201527f616c616e63650000000000000000000000000000000000000000000000000000602082015250565b60006139c3602683612529565b91506139ce82613967565b604082019050919050565b600060208201905081810360008301526139f2816139b6565b9050919050565b7f45524332303a206275726e2066726f6d20746865207a65726f2061646472657360008201527f7300000000000000000000000000000000000000000000000000000000000000602082015250565b6000613a55602183612529565b9150613a60826139f9565b604082019050919050565b60006020820190508181036000830152613a8481613a48565b9050919050565b7f45524332303a206275726e20616d6f756e7420657863656564732062616c616e60008201527f6365000000000000000000000000000000000000000000000000000000000000602082015250565b6000613ae7602283612529565b9150613af282613a8b565b604082019050919050565b60006020820190508181036000830152613b1681613ada565b9050919050565b7f416363657373436f6e74726f6c3a206163636f756e7420000000000000000000600082015250565b6000613b53601783613162565b9150613b5e82613b1d565b601782019050919050565b7f206973206d697373696e6720726f6c6520000000000000000000000000000000600082015250565b6000613b9f601183613162565b9150613baa82613b69565b601182019050919050565b6000613bc082613b46565b9150613bcc828561316d565b9150613bd782613b92565b9150613be3828461316d565b91508190509392505050565b6000613bfa8261262e565b9150613c058361262e565b9250828202613c138161262e565b91508282048414831517613c2a57613c29612dcd565b5b5092915050565b6000613c3c8261262e565b915060008203613c4f57613c4e612dcd565b5b600182039050919050565b7f537472696e67733a20686578206c656e67746820696e73756666696369656e74600082015250565b6000613c90602083612529565b9150613c9b82613c5a565b602082019050919050565b60006020820190508181036000830152613cbf81613c83565b905091905056fea26469706673582212202e75b5df38f076c6cae9503443c4df40bcad388bb617625d57df3ec77149fa2f64736f6c634300081b0033",
  "linkReferences": {},
  "deployedLinkReferences": {}
}